{
  "_format": "hh-sol-artifact-1",
  "contractName": "AchievementNFT",
  "sourceName": "contracts/nft/AchievementNFT.sol",
  "abi": [
    {
      "inputs": [
        {
          "internalType": "string",
          "name": "baseURI_",
          "type": "string"
        }
      ],
      "stateMutability": "nonpayable",
      "type": "constructor"
    },
    {
      "inputs": [
        {
          "internalType": "address",
          "name": "sender",
          "type": "address"
        },
        {
          "internalType": "uint256",
          "name": "tokenId",
          "type": "uint256"
        },
        {
          "internalType": "address",
          "name": "owner",
          "type": "address"
        }
      ],
      "name": "ERC721IncorrectOwner",
      "type": "error"
    },
    {
      "inputs": [
        {
          "internalType": "address",
          "name": "operator",
          "type": "address"
        },
        {
          "internalType": "uint256",
          "name": "tokenId",
          "type": "uint256"
        }
      ],
      "name": "ERC721InsufficientApproval",
      "type": "error"
    },
    {
      "inputs": [
        {
          "internalType": "address",
          "name": "approver",
          "type": "address"
        }
      ],
      "name": "ERC721InvalidApprover",
      "type": "error"
    },
    {
      "inputs": [
        {
          "internalType": "address",
          "name": "operator",
          "type": "address"
        }
      ],
      "name": "ERC721InvalidOperator",
      "type": "error"
    },
    {
      "inputs": [
        {
          "internalType": "address",
          "name": "owner",
          "type": "address"
        }
      ],
      "name": "ERC721InvalidOwner",
      "type": "error"
    },
    {
      "inputs": [
        {
          "internalType": "address",
          "name": "receiver",
          "type": "address"
        }
      ],
      "name": "ERC721InvalidReceiver",
      "type": "error"
    },
    {
      "inputs": [
        {
          "internalType": "address",
          "name": "sender",
          "type": "address"
        }
      ],
      "name": "ERC721InvalidSender",
      "type": "error"
    },
    {
      "inputs": [
        {
          "internalType": "uint256",
          "name": "tokenId",
          "type": "uint256"
        }
      ],
      "name": "ERC721NonexistentToken",
      "type": "error"
    },
    {
      "inputs": [
        {
          "internalType": "address",
          "name": "owner",
          "type": "address"
        }
      ],
      "name": "OwnableInvalidOwner",
      "type": "error"
    },
    {
      "inputs": [
        {
          "internalType": "address",
          "name": "account",
          "type": "address"
        }
      ],
      "name": "OwnableUnauthorizedAccount",
      "type": "error"
    },
    {
      "anonymous": false,
      "inputs": [
        {
          "indexed": true,
          "internalType": "address",
          "name": "owner",
          "type": "address"
        },
        {
          "indexed": true,
          "internalType": "address",
          "name": "approved",
          "type": "address"
        },
        {
          "indexed": true,
          "internalType": "uint256",
          "name": "tokenId",
          "type": "uint256"
        }
      ],
      "name": "Approval",
      "type": "event"
    },
    {
      "anonymous": false,
      "inputs": [
        {
          "indexed": true,
          "internalType": "address",
          "name": "owner",
          "type": "address"
        },
        {
          "indexed": true,
          "internalType": "address",
          "name": "operator",
          "type": "address"
        },
        {
          "indexed": false,
          "internalType": "bool",
          "name": "approved",
          "type": "bool"
        }
      ],
      "name": "ApprovalForAll",
      "type": "event"
    },
    {
      "anonymous": false,
      "inputs": [
        {
          "indexed": true,
          "internalType": "address",
          "name": "previousOwner",
          "type": "address"
        },
        {
          "indexed": true,
          "internalType": "address",
          "name": "newOwner",
          "type": "address"
        }
      ],
      "name": "OwnershipTransferred",
      "type": "event"
    },
    {
      "anonymous": false,
      "inputs": [
        {
          "indexed": true,
          "internalType": "address",
          "name": "from",
          "type": "address"
        },
        {
          "indexed": true,
          "internalType": "address",
          "name": "to",
          "type": "address"
        },
        {
          "indexed": true,
          "internalType": "uint256",
          "name": "tokenId",
          "type": "uint256"
        }
      ],
      "name": "Transfer",
      "type": "event"
    },
    {
      "inputs": [
        {
          "internalType": "address",
          "name": "to",
          "type": "address"
        },
        {
          "internalType": "uint256",
          "name": "tokenId",
          "type": "uint256"
        }
      ],
      "name": "approve",
      "outputs": [],
      "stateMutability": "nonpayable",
      "type": "function"
    },
    {
      "inputs": [
        {
          "internalType": "address",
          "name": "owner",
          "type": "address"
        }
      ],
      "name": "balanceOf",
      "outputs": [
        {
          "internalType": "uint256",
          "name": "",
          "type": "uint256"
        }
      ],
      "stateMutability": "view",
      "type": "function"
    },
    {
      "inputs": [
        {
          "internalType": "uint256",
          "name": "tokenId",
          "type": "uint256"
        }
      ],
      "name": "burn",
      "outputs": [],
      "stateMutability": "nonpayable",
      "type": "function"
    },
    {
      "inputs": [
        {
          "internalType": "uint256",
          "name": "tokenId",
          "type": "uint256"
        }
      ],
      "name": "getApproved",
      "outputs": [
        {
          "internalType": "address",
          "name": "",
          "type": "address"
        }
      ],
      "stateMutability": "view",
      "type": "function"
    },
    {
      "inputs": [
        {
          "internalType": "address",
          "name": "owner",
          "type": "address"
        },
        {
          "internalType": "address",
          "name": "operator",
          "type": "address"
        }
      ],
      "name": "isApprovedForAll",
      "outputs": [
        {
          "internalType": "bool",
          "name": "",
          "type": "bool"
        }
      ],
      "stateMutability": "view",
      "type": "function"
    },
    {
      "inputs": [
        {
          "internalType": "address",
          "name": "to",
          "type": "address"
        }
      ],
      "name": "mint",
      "outputs": [],
      "stateMutability": "nonpayable",
      "type": "function"
    },
    {
      "inputs": [],
      "name": "name",
      "outputs": [
        {
          "internalType": "string",
          "name": "",
          "type": "string"
        }
      ],
      "stateMutability": "view",
      "type": "function"
    },
    {
      "inputs": [],
      "name": "nextTokenId",
      "outputs": [
        {
          "internalType": "uint256",
          "name": "",
          "type": "uint256"
        }
      ],
      "stateMutability": "view",
      "type": "function"
    },
    {
      "inputs": [],
      "name": "owner",
      "outputs": [
        {
          "internalType": "address",
          "name": "",
          "type": "address"
        }
      ],
      "stateMutability": "view",
      "type": "function"
    },
    {
      "inputs": [
        {
          "internalType": "uint256",
          "name": "tokenId",
          "type": "uint256"
        }
      ],
      "name": "ownerOf",
      "outputs": [
        {
          "internalType": "address",
          "name": "",
          "type": "address"
        }
      ],
      "stateMutability": "view",
      "type": "function"
    },
    {
      "inputs": [],
      "name": "renounceOwnership",
      "outputs": [],
      "stateMutability": "nonpayable",
      "type": "function"
    },
    {
      "inputs": [
        {
          "internalType": "address",
          "name": "from",
          "type": "address"
        },
        {
          "internalType": "address",
          "name": "to",
          "type": "address"
        },
        {
          "internalType": "uint256",
          "name": "tokenId",
          "type": "uint256"
        }
      ],
      "name": "safeTransferFrom",
      "outputs": [],
      "stateMutability": "nonpayable",
      "type": "function"
    },
    {
      "inputs": [
        {
          "internalType": "address",
          "name": "from",
          "type": "address"
        },
        {
          "internalType": "address",
          "name": "to",
          "type": "address"
        },
        {
          "internalType": "uint256",
          "name": "tokenId",
          "type": "uint256"
        },
        {
          "internalType": "bytes",
          "name": "data",
          "type": "bytes"
        }
      ],
      "name": "safeTransferFrom",
      "outputs": [],
      "stateMutability": "nonpayable",
      "type": "function"
    },
    {
      "inputs": [
        {
          "internalType": "address",
          "name": "operator",
          "type": "address"
        },
        {
          "internalType": "bool",
          "name": "approved",
          "type": "bool"
        }
      ],
      "name": "setApprovalForAll",
      "outputs": [],
      "stateMutability": "nonpayable",
      "type": "function"
    },
    {
      "inputs": [
        {
          "internalType": "string",
          "name": "newURI",
          "type": "string"
        }
      ],
      "name": "setBaseURI",
      "outputs": [],
      "stateMutability": "nonpayable",
      "type": "function"
    },
    {
      "inputs": [
        {
          "internalType": "bytes4",
          "name": "interfaceId",
          "type": "bytes4"
        }
      ],
      "name": "supportsInterface",
      "outputs": [
        {
          "internalType": "bool",
          "name": "",
          "type": "bool"
        }
      ],
      "stateMutability": "view",
      "type": "function"
    },
    {
      "inputs": [],
      "name": "symbol",
      "outputs": [
        {
          "internalType": "string",
          "name": "",
          "type": "string"
        }
      ],
      "stateMutability": "view",
      "type": "function"
    },
    {
      "inputs": [
        {
          "internalType": "uint256",
          "name": "tokenId",
          "type": "uint256"
        }
      ],
      "name": "tokenURI",
      "outputs": [
        {
          "internalType": "string",
          "name": "",
          "type": "string"
        }
      ],
      "stateMutability": "view",
      "type": "function"
    },
    {
      "inputs": [
        {
          "internalType": "address",
          "name": "from",
          "type": "address"
        },
        {
          "internalType": "address",
          "name": "to",
          "type": "address"
        },
        {
          "internalType": "uint256",
          "name": "tokenId",
          "type": "uint256"
        }
      ],
      "name": "transferFrom",
      "outputs": [],
      "stateMutability": "nonpayable",
      "type": "function"
    },
    {
      "inputs": [
        {
          "internalType": "address",
          "name": "newOwner",
          "type": "address"
        }
      ],
      "name": "transferOwnership",
      "outputs": [],
      "stateMutability": "nonpayable",
      "type": "function"
    }
  ],
  "bytecode": "0x60806040523480156200001157600080fd5b50604051620016f7380380620016f7833981016040819052620000349162000163565b336040518060400160405280601b81526020017f5765623320506c617967726f756e6420416368696576656d656e7400000000008152506040518060400160405280600381526020016257504160e81b8152508160009081620000989190620002c9565b506001620000a78282620002c9565b5050506001600160a01b038116620000d957604051631e4fbdf760e01b81526000600482015260240160405180910390fd5b620000e481620000fb565b506008620000f38282620002c9565b505062000395565b600680546001600160a01b038381166001600160a01b0319831681179093556040519116919082907f8be0079c531659141344cd1fd0a4f28419497f9722a3daafe3b4186f6b6457e090600090a35050565b634e487b7160e01b600052604160045260246000fd5b600060208083850312156200017757600080fd5b82516001600160401b03808211156200018f57600080fd5b818501915085601f830112620001a457600080fd5b815181811115620001b957620001b96200014d565b604051601f8201601f19908116603f01168101908382118183101715620001e457620001e46200014d565b816040528281528886848701011115620001fd57600080fd5b600093505b8284101562000221578484018601518185018701529285019262000202565b600086848301015280965050505050505092915050565b600181811c908216806200024d57607f821691505b6020821081036200026e57634e487b7160e01b600052602260045260246000fd5b50919050565b601f821115620002c4576000816000526020600020601f850160051c810160208610156200029f5750805b601f850160051c820191505b81811015620002c057828155600101620002ab565b5050505b505050565b81516001600160401b03811115620002e557620002e56200014d565b620002fd81620002f6845462000238565b8462000274565b602080601f8311600181146200033557600084156200031c5750858301515b600019600386901b1c1916600185901b178555620002c0565b600085815260208120601f198616915b82811015620003665788860151825594840194600190910190840162000345565b5085821015620003855787850151600019600388901b60f8161c191681555b5050505050600190811b01905550565b61135280620003a56000396000f3fe608060405234801561001057600080fd5b506004361061012c5760003560e01c806370a08231116100ad578063a22cb46511610071578063a22cb4651461026b578063b88d4fde1461027e578063c87b56dd14610291578063e985e9c5146102a4578063f2fde38b146102b757600080fd5b806370a0823114610220578063715018a61461024157806375794a3c146102495780638da5cb5b1461025257806395d89b411461026357600080fd5b806342842e0e116100f457806342842e0e146101c157806342966c68146101d457806355f804b3146101e75780636352211e146101fa5780636a6278421461020d57600080fd5b806301ffc9a71461013157806306fdde0314610159578063081812fc1461016e578063095ea7b31461019957806323b872dd146101ae575b600080fd5b61014461013f366004610e34565b6102ca565b60405190151581526020015b60405180910390f35b61016161031c565b6040516101509190610ea1565b61018161017c366004610eb4565b6103ae565b6040516001600160a01b039091168152602001610150565b6101ac6101a7366004610ee9565b6103d7565b005b6101ac6101bc366004610f13565b6103e6565b6101ac6101cf366004610f13565b610476565b6101ac6101e2366004610eb4565b610496565b6101ac6101f5366004610fdb565b610502565b610181610208366004610eb4565b610516565b6101ac61021b366004611024565b610521565b61023361022e366004611024565b61054a565b604051908152602001610150565b6101ac610592565b61023360075481565b6006546001600160a01b0316610181565b6101616105a6565b6101ac61027936600461103f565b6105b5565b6101ac61028c36600461107b565b6105c0565b61016161029f366004610eb4565b6105d8565b6101446102b23660046110f7565b610640565b6101ac6102c5366004611024565b61066e565b60006001600160e01b031982166380ac58cd60e01b14806102fb57506001600160e01b03198216635b5e139f60e01b145b8061031657506301ffc9a760e01b6001600160e01b03198316145b92915050565b60606000805461032b9061112a565b80601f01602080910402602001604051908101604052809291908181526020018280546103579061112a565b80156103a45780601f10610379576101008083540402835291602001916103a4565b820191906000526020600020905b81548152906001019060200180831161038757829003601f168201915b5050505050905090565b60006103b9826106a9565b506000828152600460205260409020546001600160a01b0316610316565b6103e28282336106e2565b5050565b6001600160a01b03821661041557604051633250574960e11b8152600060048201526024015b60405180910390fd5b60006104228383336106ef565b9050836001600160a01b0316816001600160a01b031614610470576040516364283d7b60e01b81526001600160a01b038086166004830152602482018490528216604482015260640161040c565b50505050565b610491838383604051806020016040528060008152506105c0565b505050565b336104a082610516565b6001600160a01b0316146104f65760405162461bcd60e51b815260206004820152601960248201527f596f7520617265206e6f7420746865204e4654206f776e657200000000000000604482015260640161040c565b6104ff816107e8565b50565b61050a6107f4565b60086103e282826111ac565b6000610316826106a9565b6105296107f4565b60078054908190600061053b8361126c565b91905055506103e28282610821565b60006001600160a01b038216610576576040516322718ad960e21b81526000600482015260240161040c565b506001600160a01b031660009081526003602052604090205490565b61059a6107f4565b6105a4600061083b565b565b60606001805461032b9061112a565b6103e233838361088d565b6105cb8484846103e6565b610470338585858561092c565b60606105e3826106a9565b5060006105ee610a57565b9050600081511161060e5760405180602001604052806000815250610639565b8061061884610a66565b604051602001610629929190611293565b6040516020818303038152906040525b9392505050565b6001600160a01b03918216600090815260056020908152604080832093909416825291909152205460ff1690565b6106766107f4565b6001600160a01b0381166106a057604051631e4fbdf760e01b81526000600482015260240161040c565b6104ff8161083b565b6000818152600260205260408120546001600160a01b03168061031657604051637e27328960e01b81526004810184905260240161040c565b6104918383836001610af9565b6000828152600260205260408120546001600160a01b039081169083161561071c5761071c818486610bff565b6001600160a01b0381161561075a57610739600085600080610af9565b6001600160a01b038116600090815260036020526040902080546000190190555b6001600160a01b03851615610789576001600160a01b0385166000908152600360205260409020805460010190555b60008481526002602052604080822080546001600160a01b0319166001600160a01b0389811691821790925591518793918516917fddf252ad1be2c89b69c2b068fc378daa952ba7f163c4a11628f55a4df523b3ef91a4949350505050565b6103e2600082336106ef565b6006546001600160a01b031633146105a45760405163118cdaa760e01b815233600482015260240161040c565b6103e2828260405180602001604052806000815250610c63565b600680546001600160a01b038381166001600160a01b0319831681179093556040519116919082907f8be0079c531659141344cd1fd0a4f28419497f9722a3daafe3b4186f6b6457e090600090a35050565b6001600160a01b0382166108bf57604051630b61174360e31b81526001600160a01b038316600482015260240161040c565b6001600160a01b03838116600081815260056020908152604080832094871680845294825291829020805460ff191686151590811790915591519182527f17307eab39ab6107e8899845ad3d59bd9653f200f220920489ca2b5937696c31910160405180910390a3505050565b6001600160a01b0383163b15610a5057604051630a85bd0160e11b81526001600160a01b0384169063150b7a029061096e9088908890879087906004016112c2565b6020604051808303816000875af19250505080156109a9575060408051601f3d908101601f191682019092526109a6918101906112ff565b60015b610a12573d8080156109d7576040519150601f19603f3d011682016040523d82523d6000602084013e6109dc565b606091505b508051600003610a0a57604051633250574960e11b81526001600160a01b038516600482015260240161040c565b805160208201fd5b6001600160e01b03198116630a85bd0160e11b14610a4e57604051633250574960e11b81526001600160a01b038516600482015260240161040c565b505b5050505050565b60606008805461032b9061112a565b60606000610a7383610c7b565b600101905060008167ffffffffffffffff811115610a9357610a93610f4f565b6040519080825280601f01601f191660200182016040528015610abd576020820181803683370190505b5090508181016020015b600019016f181899199a1a9b1b9c1cb0b131b232b360811b600a86061a8153600a8504945084610ac757509392505050565b8080610b0d57506001600160a01b03821615155b15610bcf576000610b1d846106a9565b90506001600160a01b03831615801590610b495750826001600160a01b0316816001600160a01b031614155b8015610b5c5750610b5a8184610640565b155b15610b855760405163a9fbf51f60e01b81526001600160a01b038416600482015260240161040c565b8115610bcd5783856001600160a01b0316826001600160a01b03167f8c5be1e5ebec7d5bd14f71427d1e84f3dd0314c0f7b2291e5b200ac8c7c3b92560405160405180910390a45b505b5050600090815260046020526040902080546001600160a01b0319166001600160a01b0392909216919091179055565b610c0a838383610d53565b610491576001600160a01b038316610c3857604051637e27328960e01b81526004810182905260240161040c565b60405163177e802f60e01b81526001600160a01b03831660048201526024810182905260440161040c565b610c6d8383610db9565b61049133600085858561092c565b60008072184f03e93ff9f4daa797ed6e38ed64bf6a1f0160401b8310610cba5772184f03e93ff9f4daa797ed6e38ed64bf6a1f0160401b830492506040015b6d04ee2d6d415b85acef81000000008310610ce6576d04ee2d6d415b85acef8100000000830492506020015b662386f26fc100008310610d0457662386f26fc10000830492506010015b6305f5e1008310610d1c576305f5e100830492506008015b6127108310610d3057612710830492506004015b60648310610d42576064830492506002015b600a83106103165760010192915050565b60006001600160a01b03831615801590610db15750826001600160a01b0316846001600160a01b03161480610d8d5750610d8d8484610640565b80610db157506000828152600460205260409020546001600160a01b038481169116145b949350505050565b6001600160a01b038216610de357604051633250574960e11b81526000600482015260240161040c565b6000610df1838360006106ef565b90506001600160a01b03811615610491576040516339e3563760e11b81526000600482015260240161040c565b6001600160e01b0319811681146104ff57600080fd5b600060208284031215610e4657600080fd5b813561063981610e1e565b60005b83811015610e6c578181015183820152602001610e54565b50506000910152565b60008151808452610e8d816020860160208601610e51565b601f01601f19169290920160200192915050565b6020815260006106396020830184610e75565b600060208284031215610ec657600080fd5b5035919050565b80356001600160a01b0381168114610ee457600080fd5b919050565b60008060408385031215610efc57600080fd5b610f0583610ecd565b946020939093013593505050565b600080600060608486031215610f2857600080fd5b610f3184610ecd565b9250610f3f60208501610ecd565b9150604084013590509250925092565b634e487b7160e01b600052604160045260246000fd5b600067ffffffffffffffff80841115610f8057610f80610f4f565b604051601f8501601f19908116603f01168101908282118183101715610fa857610fa8610f4f565b81604052809350858152868686011115610fc157600080fd5b858560208301376000602087830101525050509392505050565b600060208284031215610fed57600080fd5b813567ffffffffffffffff81111561100457600080fd5b8201601f8101841361101557600080fd5b610db184823560208401610f65565b60006020828403121561103657600080fd5b61063982610ecd565b6000806040838503121561105257600080fd5b61105b83610ecd565b91506020830135801515811461107057600080fd5b809150509250929050565b6000806000806080858703121561109157600080fd5b61109a85610ecd565b93506110a860208601610ecd565b925060408501359150606085013567ffffffffffffffff8111156110cb57600080fd5b8501601f810187136110dc57600080fd5b6110eb87823560208401610f65565b91505092959194509250565b6000806040838503121561110a57600080fd5b61111383610ecd565b915061112160208401610ecd565b90509250929050565b600181811c9082168061113e57607f821691505b60208210810361115e57634e487b7160e01b600052602260045260246000fd5b50919050565b601f821115610491576000816000526020600020601f850160051c8101602086101561118d5750805b601f850160051c820191505b81811015610a4e57828155600101611199565b815167ffffffffffffffff8111156111c6576111c6610f4f565b6111da816111d4845461112a565b84611164565b602080601f83116001811461120f57600084156111f75750858301515b600019600386901b1c1916600185901b178555610a4e565b600085815260208120601f198616915b8281101561123e5788860151825594840194600190910190840161121f565b508582101561125c5787850151600019600388901b60f8161c191681555b5050505050600190811b01905550565b60006001820161128c57634e487b7160e01b600052601160045260246000fd5b5060010190565b600083516112a5818460208801610e51565b8351908301906112b9818360208801610e51565b01949350505050565b6001600160a01b03858116825284166020820152604081018390526080606082018190526000906112f590830184610e75565b9695505050505050565b60006020828403121561131157600080fd5b815161063981610e1e56fea2646970667358221220b13f319eeaa7ff8fc837d98f5689385727ebbcd08498970fafa7bbb0985a57df64736f6c63430008180033",
  "linkReferences": {},
  "deployedLinkReferences": {}
}